:020000040800F2
:10000000005000204D0100089101000891010008F6
:100010009101000891010008910100080000000012
:100020000000000000000000000000009101000836
:1000300091010008000000009101000891010008F2
:100040009101000891010008910100089101000848
:100050009101000891010008910100089101000838
:100060009101000891010008910100089101000828
:100070009101000891010008910100089101000818
:100080009101000891010008910100089101000808
:1000900091010008910100089101000891010008F8
:1000A00091010008910100089101000891010008E8
:1000B00091010008910100089101000891010008D8
:1000C00091010008910100089101000891010008C8
:1000D00091010008910100089101000891010008B8
:1000E0009101000891010008910100080000000042
:1000F0000000000000000000000000000000000000
:0C01000000000000000000005FF808F1A3
:10010C0010B5054C227832B9044B13B10448AFF347
:10011C0000800123237010BD0000002000000000AF
:10012C000C01000808B5034B1BB103490348AFF39E
:10013C00008008BD00000000040000200C01000835
:10014C00002103E00A4B5B584350043109480A4B29
:10015C0042189A42F6D3094A02E0002342F8043BC3
:10016C00074B9A42F9D300F00FF800F085F870476E
:10017C00A802000800000020000000200000002061
:10018C001C000020FEE70000374B82B01A6842F0DA
:10019C0001021A605968354A0A405A601A6822F0FE
:1001AC00847222F480321A601A6822F480221A6057
:1001BC005A6822F4FE025A604FF41F029A60002221
:1001CC00009201921A6842F480321A601A6802F4A2
:1001DC0000320192009A01320092019A1AB9009AE7
:1001EC00B2F5A06FF2D11A6812F4003218BF0122D6
:1001FC000192019A012A30D11D4A116841F0100177
:10020C001160116821F003011160116841F00201C5
:10021C0011605A685A605A685A605A6842F480628F
:10022C005A605A6822F47C125A605A6842F4E812F6
:10023C005A601A6842F080721A601A689201FCD5F2
:10024C005A6822F003025A605A6842F002025A605D
:10025C005A6802F00C02082AFAD14FF00062054BE2
:10026C009A6002B0704700BF001002400000FFF817
:10027C000020024000ED00E0FEE70000F8B500BFF2
:10028C00F8BC08BC9E467047F8B500BFF8BC08BC6B
:04029C009E467047C3
:0402A0003101000820
:0402A4000D01000840
:040000050800014DA1
:00000001FF
